:1000000052C1000081C100007FC100007DC100001D
:100010007BC1000079C1000077C1000075C10000FC
:1000200073C1000071C100006FC100006DC100000C
:100030006BC1000069C1000067C1000065C100001C
:1000400063C1000061C100005FC100005DC100002C
:100050005BC1000059C1000057C1000056C100003B
:1000600053C100000C94AD0B0C94840B4DC10000E7
:100070004BC1000049C1000047C1000045C100005C
:1000800043C1000041C100003FC100003DC100006C
:100090003BC1000039C1000037C1000035C100007C
:1000A00033C1000031C100002FC100002DC100008C
:1000B0002BC1000029C1000027C1000025C100009C
:1000C00023C1000021C100001FC100001DC10000AC
:1000D0001BC1000019C1000017C1000015C10000BC
:1000E00013C100009A059F05A405AE05B8053106A9
:1000F000C205CA05D205DC05E605F005FF050906BF
:10010000310613061D062706CF09D209C109C50904
:10011000CB09090AD609DA09E009E409E809EE0978
:10012000F209F609090AFC09000A040A4572726F0D
:10013000723A20556E6B6E6F776E20636F6D6D61D6
:100140006E643A2000475233004752320047523122
:10015000420047523141005354330053543200534C
:100160005431420053543141005341330053413222
:10017000005341314200534131410047465700523C
:1001800053540000002100240027002A002D0030D5
:1001900000330001010000040107010A01000022F0
:1001A00000250028002B002E003100340002010041
:1001B00000050108010B0100000A0B02090C0D0EDD
:1001C0000807030401000000000000000000000018
:1001D000000000000000000000000000000000001F
:1001E00000000012111000000000000000000000DC
:1001F00000000000000000000000000000000020DF
:10020000002300260029002C002F003200000100EE
:100210000003010601090105050505070508080891
:1002200008020202020A0A08080404040401010187
:10023000010101010103030303030303030407078F
:10024000070C0C0C0C0C0C0C0C020202020606062D
:1002500006060606060B0B0B0B0B0B0B0B01021015
:1002600020200808102040102040800201020108D0
:100270000402010102040810204080804020100880
:1002800004020180040201804020100804020108D9
:100290000402010102040810204080010204081039
:1002A00020408000AF0C11241FBECFEFD1E2DEBF93
:1002B000CDBF00E00CBF15E0A0E0B2E0EAE0F4E260
:1002C00000E00BBF02C007900D92AA33B107D9F727
:1002D00026E0AAE3B5E001C01D92AB37B207E1F713
:1002E00011E0C3E5D1E000E006C021970109802FAD
:1002F000FE010E942E0FC235D10780E00807A9F742
:100300000E94DC0C0C9403127BCE1F920F920FB64E
:100310000F9211242F933F938F939F93AF93BF938B
:100320008091D5059091D605A091D705B091D805BB
:100330003091D40523E0230F2D3720F40196A11D21
:10034000B11D05C026E8230F0296A11DB11D209303
:10035000D4058093D5059093D605A093D705B09387
:10036000D8058091D9059091DA05A091DB05B0916F
:10037000DC050196A11DB11D8093D9059093DA0586
:10038000A093DB05B093DC05BF91AF919F918F9156
:100390003F912F910F900FBE0F901F901895CF9304
:1003A0001092DD05C1E08EED95E00AD7892BB1F101
:1003B0008EED95E0E3D62091D2053091D3058830BB
:1003C000910519F08F37910551F42115310559F335
:1003D000215031093093D3052093D205E4CF8D30DD
:1003E000910569F4F901EE5AFA4F1082232B11F0AE
:1003F000C093DD051092D3051092D205D4CF2F37CC
:1004000031058CF6A9014F5F5F4F5093D3054093A0
:10041000D205F901EE5AFA4F8083C5CF82E595E007
:10042000CF910895AF92BF92CF92DF92EF92FF9259
:100430000F931F93CF93DF93CDB7DEB7C258D10987
:100440000FB6F894DEBF0FBECDBFCF57DF4F9983F5
:100450008883C158D04060E073E0CE018F579F4F32
:100460000E94D70D8C016FE771E00E94CE0D892BA1
:1004700029F588EC92E00E94060B10924D0510922F
:100480004C051092470510924605109241051092B6
:10049000400510923B0510923A05109251051092BA
:1004A0004B051092450510923F0510925005109291
:1004B0004A051092440510923E05F1C26BE771E0C7
:1004C000C8010E94CE0D892B39F48CEC92E00E9479
:1004D000060B80ED92E0D1C266E771E0C8010E9490
:1004E000CE0D892B09F098C0809151058111D7C29A
:1004F00086ED92E00E94060B1092500581E08093F9
:1005000051058BED92E00E94060B61E08CE20E94A7
:10051000E30B80915005811148C041DF2091DD053A
:10052000211180DF10924D0510924C0504E312E07A
:100530002EE2E22E22E0F22EF801C190D1908F013E
:10054000C6010E94130B5C01F701819191917F011B
:10055000A816B906C1F420914C0530914D052F5FC6
:100560003F4F30934D0520934C0582EF92E00E945F
:10057000120BC6010E943B0B8EEF92E00E94120B01
:10058000C5010E94430BF2E00A331F07A9F68AE275
:1005900090E00E94130B009729F48CE290E00E94F7
:1005A000120C03C0019709F4B4CF80915005882341
:1005B00021F082E093E00E94060B60E08CE20E9452
:1005C000E30B1092510580914C0590914D0580935D
:1005D0004E0590934F05209150058E010F5F1F4FE0
:1005E000222329F09F938F9385E193E004C09F938A
:1005F0008F938EE193E09F938F931F930F930E94AD
:100600003A0F0F900F900F900F900F900F90C8011E
:10061000FDD71092510543C261E771E0C8010E9405
:10062000CE0D892B09F082C080914B05811137C214
:1006300087E293E0EBD710924A0581E080934B0567
:100640008CE293E0E3D761E080E30E94E30B8091CA
:100650004A05811135C0A3DE2091DD052111E2DEBE
:1006600010924705109246050AE312E0F801E19066
:10067000F1908F01C701D7D7892B89F483E493E0E8
:10068000D1D7C701F8D781E593E0C0D7809146055F
:100690009091470501969093470580934605F2E0B7
:1006A00002341F0719F78EE290E0BDD7009729F4B6
:1006B00080E390E00E94120C03C0019709F4C7CFB9
:1006C00080914A05882319F08BE593E09FD760E07D
:1006D00080E30E94E30B10924B05809146059091B8
:1006E0004705809348059093490520914A058E015E
:1006F0000F5F1F4F222329F09F938F938EE693E085
:1007000004C09F938F9387E793E09F938F931F93EA
:100710000F930E943A0F0F900F900F900F900F9031
:100720000F90C80173D710924B05B9C16DE671E007
:10073000C8010E94CE0D892B09F0AEC080914505FD
:100740008111ADC180E893E061D71092440581E04A
:100750008093450584E893E059D761E085E30E94E2
:10076000E30B8091440581114CC019DE2091DD0519
:10077000211158DE109241051092400500E512E06B
:1007800092E4E92E92E0F92EF801808191814BD715
:10079000019731F460E0F70180810E94E30B18C0FB
:1007A0008091400590914105019690934105809379
:1007B000400561E0F70180810E94E30B89EF92E040
:1007C00031D7F8018081918156D781E593E01ED71A
:1007D0000E5F1F4FF2E0EF0EF11C22E00E35120704
:1007E00099F683E390E01FD7009741F485E390E00A
:1007F0000E94120C8AE993E009D703C0019709F41B
:10080000B0CF80914405882319F086EB93E0FED6A3
:1008100002E412E0F80180810E5F1F4F60E0D3D741
:10082000F2E000351F07B1F760E085E3CCD788EC34
:1008300093E0ECD6109245058091400590914105DA
:100840008093420590934305209144058E010F5FEC
:100850001F4F222361F08CED93E0D8D680914105A3
:100860008F93809140058F9384EE93E004C09F9313
:100870008F938CEE93E09F938F931F930F930E941F
:100880003A0F0F900F900F900F900F900F90C8019C
:10089000BDD61092450503C169E671E0C8010E940A
:1008A000CE0D892B99F580913F058111F8C084EF19
:1008B00093E0ACD610923E0504D190933D05809311
:1008C0003C0520913E058E010F5F1F4F90913B0527
:1008D00080913A05222329F09F938F9388EF93E02C
:1008E00004C09F938F9380E094E09F938F931F9316
:1008F0000F930E943A0F0F900F900F900F900F9050
:100900000F90C80183D610923F05C9C064E671E01C
:10091000C8010E94CE0D892B61F481E080935005BF
:1009200080914D058F9380914C058F9385E193E0E5
:1009300089C06FE571E0C8010E94CE0D892B61F47A
:1009400081E080934A05809147058F938091460509
:100950008F938EE693E076C06BE571E0C8010E944C
:10096000CE0D892B61F481E080934405809141058F
:100970008F93809140058F9384EE93E063C067E589
:1009800071E0C8010E94CE0D892B89F481E080932B
:100990003E0597D090933D0580933C0580913B05A3
:1009A0008F9380913A058F9388EF93E04BC062E577
:1009B00071E0C8010E94CE0D892B61F488E094E0BB
:1009C00025D680914D058F9380914C058F938DE0B6
:1009D00094E038C06DE471E0C8010E94CE0D892B0F
:1009E00061F486E194E012D6809147058F9380915F
:1009F00046058F938BE194E025C069E471E0C8015E
:100A00000E94CE0D892B61F484E294E0FFD58091A1
:100A100041058F93809140058F9388E294E012C046
:100A200065E471E0C8010E94CE0D892BE9F480E3F2
:100A300094E0ECD580913B058F9380913A058F939C
:100A400084E394E09F938F938E010F5F1F4F1F935A
:100A50000F930E943A0FC801D9D50F900F900F90B5
:100A60000F900F900F901BC08CE2E82E81E0F82EC3
:100A7000F7016491611103C0C801C8D510C0E091AD
:100A8000DE05F091DF050190F081E02D8EED95E01F
:100A90001995FFEFEF1AFF0A892B51F7EDCFCE57CB
:100AA000DF4F0FB6F894DEBF0FBECDBFDF91CF9101
:100AB0001F910F91FF90EF90DF90CF90BF90AF907C
:100AC0000895CF92DF92EF92FF920F931F93CF93EF
:100AD000DF9381E080933F058CE394E097D504E2B7
:100AE00012E08AE1E82E82E0F82EF801C191D1915E
:100AF0008F01F701C190D1907F0161E08C2DAED6BE
:100B0000209709F4B1C0CF3FD10509F4AFC0F60179
:100B1000FF27E954FE4FE4914E2F50E0FA01319740
:100B2000E231F10508F09DC08827EE58FF4F8F4F46
:100B30000C942E0F84B5806884BDC7BD9AC084B55F
:100B4000806284BDC8BD95C080918000806880931C
:100B50008000D0938900C09388008BC08091800072
:100B6000806280938000D0938B00C0938A0081C004
:100B700080918000886080938000D0938D00C09326
:100B80008C0077C08091B00080688093B000C093E3
:100B9000B3006FC08091B00080628093B000C093BA
:100BA000B40067C080919000806880939000D093DB
:100BB0009900C09398005DC08091900080628093FE
:100BC0009000D0939B00C0939A0053C080919000F6
:100BD000886080939000D0939D00C0939C0049C092
:100BE0008091A00080688093A0008091A0008F7BFE
:100BF0008093A000D093A900C093A8003AC0809130
:100C0000A00080628093A000D093AB00C093AA00A4
:100C100030C08091A00088608093A000D093AD0088
:100C2000C093AC0026C08091200180688093200191
:100C3000D0932901C09328011CC0809120018062BB
:100C400080932001D0932B01C0932A0112C0809180
:100C50002001886080932001D0932D01C0932C0146
:100C600008C0C038D10514F460E001C061E08C2DEB
:100C7000AAD582E00033180709F037CF61E08DE094
:100C8000A2D580913E05811122C110923B051092A0
:100C90003A0585DB2091DD052111C4DBC2E1D2E0FC
:100CA0000AE012E089919991BED4F8012191319125
:100CB0008F018217930749F480913A0590913B0583
:100CC000019690933B0580933A05F2E0CA31DF0725
:100CD00049F700E012E0C0E0D0E0F80180810E5F4B
:100CE0001F4FE6D46B017C01CE01C5D482E594E0B0
:100CF00099D4C601C8D4209729F5B601DD0C880B1C
:100D0000990B73D76B017C012DEC3CEC4CE85FE355
:100D1000CFD720E030E040E454E4C6D787FDB9C027
:100D200026E636E646E65FE3C701B601C1D720E016
:100D300030E040E454E453D718160CF4AAC080E61F
:100D400094E09DC0C130D10529F5B601DD0C880BBA
:100D5000990B4BD76B017C012DEC3CEC4CE85FE32D
:100D6000A7D720E030E040E853E49ED787FD91C04C
:100D700026E636E646E65FE3C701B60199D720E0EE
:100D800030E040E853E42BD718160CF482C083E619
:100D900094E075C0C230D10529F5B601DD0C880B91
:100DA000990B23D76B017C012DEC3CEC4CE85FE305
:100DB0007FD720E030E040E854E476D787FD69C073
:100DC00026E636E646E65FE3C701B60171D720E0C6
:100DD00030E040E854E403D718160CF45AC086E615
:100DE00094E04DC0C330D10521F5B601DD0C880B70
:100DF000990BFBD66B017C012DEC3CEC4CE85FE3DE
:100E000057D720E030E040E054E44ED787FD41C0A2
:100E100026E636E646E65FE3C701B60149D720E09D
:100E200030E040E054E4DBD618169CF189E694E00B
:100E300026C0C430D10569F5B601DD0C880B990BCD
:100E4000D4D66B017C012DEC3CEC4CE85FE330D751
:100E500020E030E040EA54E427D787FD1AC026E6B8
:100E600036E646E65FE3C701B60122D720E030E070
:100E700040EA54E4B4D6181664F08CE694E0D2D379
:100E800080913A0590913B05019690933B058093A4
:100E90003A0585EE94E0BAD32196C530D10509F024
:100EA0001CCF8CE090E0BFD3EC01892B31F48DE0B6
:100EB00090E0B8D48FE694E0A9D380913E058823D2
:100EC00019F08BE894E0A2D3219709F4DACE1092BE
:100ED0003B0510923A05C2E1D2E00AE012E08991A6
:100EE0009991A1D3F801219131918F018217930734
:100EF00049F480913A0590913B05019690933B050A
:100F000080933A05F2E0CA31DF0749F700E012E0CA
:100F1000C0E0D0E0F80180810E5F1F4FC9D36B01A4
:100F20007C01CE01A8D38DE994E07CD3C601ABD37C
:100F3000209729F5B601DD0C880B990B56D66B016D
:100F40007C012DEC3CEC4CE85FE3B2D620E030E0D5
:100F500040E454E4A9D687FDB9C026E636E646E665
:100F60005FE3C701B601A4D620E030E040E454E4DA
:100F700036D618160CF4AAC08CEA94E09DC0C13095
:100F8000D10529F5B601DD0C880B990B2ED66B0126
:100F90007C012DEC3CEC4CE85FE38AD620E030E0AD
:100FA00040E853E481D687FD91C026E636E646E662
:100FB0005FE3C701B6017CD620E030E040E853E4AF
:100FC0000ED618160CF482C083EB94E075C0C230C4
:100FD000D10529F5B601DD0C880B990B06D66B01FE
:100FE0007C012DEC3CEC4CE85FE362D620E030E085
:100FF00040E854E459D687FD69C026E636E646E661
:101000005FE3C701B60154D620E030E040E854E485
:10101000E6D518160CF45AC08AEB94E04DC0C330E4
:10102000D10521F5B601DD0C880B990BDED56B01DE
:101030007C012DEC3CEC4CE85FE33AD620E030E05C
:1010400040E054E431D687FD41C026E636E646E668
:101050005FE3C701B6012CD620E030E040E054E465
:10106000BED518169CF181EC94E026C0C430D105A1
:1010700069F5B601DD0C880B990BB7D56B017C01C6
:101080002DEC3CEC4CE85FE313D620E030E040EA86
:1010900054E40AD687FD1AC026E636E646E65FE344
:1010A000C701B60105D620E030E040EA54E497D508
:1010B000181664F088EC94E0A9D280913A059091DA
:1010C0003B05019690933B0580933A052196C530E8
:1010D000D10509F01FCF10923F0560E08DE073D37A
:1010E0008FEC94E093D280913A0590913B05DF918B
:1010F000CF911F910F91FF90EF90DF90CF900895C7
:10110000CF92DF92EF92FF920F931F93CF93DF93D3
:101110006C017A018B01C0E0D0E0CE15DF0589F0CB
:10112000D8016D918D01D601ED91FC910190F08176
:10113000E02DC6011995892B11F47E0102C021967C
:10114000ECCFC701DF91CF911F910F91FF90EF90EE
:10115000DF90CF900895089580E090E00895FC011D
:10116000538D448D252F30E0842F90E0821B930B0C
:10117000541710F0CF96089501970895FC01918DB2
:10118000828D981761F0828DDF01A80FB11D5D96E9
:101190008C91928D9F5F9F73928F90E008958FEF57
:1011A0009FEF0895FC01918D828D981731F0828D0B
:1011B000E80FF11D858D90E008958FEF9FEF089562
:1011C000FC01918D228D892F90E0805C9F4F821BC6
:1011D00091098F73992708958EED95E0F1DF21E055
:1011E000892B09F420E0822F0895FC01848DDF0112
:1011F000A80FB11DA35ABF4F2C91848D90E001968A
:101200008F739927848FA689B7892C93A089B18978
:101210008C9180648C93938D848D981306C0028882
:10122000F389E02D80818F7D80830895EF92FF9276
:101230000F931F93CF93DF93EC0181E0888F9B8DF9
:101240008C8D981305C0E889F989808185FD23C0BC
:10125000F62E0B8D10E00F5F1F4F0F731127E02E3E
:101260008C8DE8120BC00FB607FCFACFE889F9891C
:10127000808185FFF5CFCE01B8DFF2CF8B8DFE01E7
:10128000E80FF11DE35AFF4FF0820B8FEA89FB89CB
:101290008081806207C0EE89FF896083E889F989CF
:1012A00080818064808381E090E0DF91CF911F9105
:1012B0000F91FF90EF900895CF93DF93EC01888D0D
:1012C0008823C1F0EA89FB89808185FD05C0A88952
:1012D000B9898C9186FD0EC00FB607FCF5CF8081D1
:1012E00085FFF2CFA889B9898C9185FFEDCFCE011A
:1012F0007CDFE8CFDF91CF91089580E090E0892BEB
:1013000019F06ADF811125C080E090E0892B41F05F
:1013100080E090E0892B21F00E94000081111CC028
:1013200080E090E0892B41F080E090E0892B21F073
:101330000E940000811113C080E090E0892BA1F091
:1013400080E090E0892B81F00E94000081110AC0AA
:1013500008950E940000D8CF0E940000E1CF0E94B3
:101360000000EACF0C940000089590E0FC01319752
:10137000E231F10508F04DC08827EC57FF4F8F4F41
:101380006DC5809180008F7703C0809180008F7D34
:1013900080938000089580918000877FF9CF84B585
:1013A0008F7702C084B58F7D84BD08958091B00091
:1013B0008F7703C08091B0008F7D8093B000089537
:1013C000809190008F7707C0809190008F7D03C03F
:1013D00080919000877F8093900008958091A00075
:1013E0008F7707C08091A0008F7D03C08091A000FF
:1013F000877F8093A0000895809120018F7707C098
:10140000809120018F7D03C080912001877F809390
:1014100020010895CF93DF93282F30E0F901E9549C
:10142000FE4F8491F901E35AFD4FD491F901E95E31
:10143000FD4FC491CC2389F0811197DFEC2FF0E0B0
:10144000EE0FFF1FE350FE4FA591B491EC91ED23F9
:1014500081E090E021F480E002C080E090E0DF9144
:10146000CF9108953FB7F8948091D9059091DA050E
:10147000A091DB05B091DC0526B5A89B05C02F3FE8
:1014800019F00196A11DB11D3FBFBA2FA92F982FAA
:101490008827820F911DA11DB11DBC01CD0142E025
:1014A000660F771F881F991F4A95D1F708958F926D
:1014B0009F92AF92BF92CF92DF92EF92FF926B0119
:1014C0007C01D0DF4B015C01C114D104E104F104C3
:1014D000E9F0C8DFDC01CB0188199909AA09BB0929
:1014E000883E9340A105B10578F321E0C21AD108E6
:1014F000E108F10888EE880E83E0981EA11CB11C5B
:10150000C114D104E104F10421F7DECFFF90EF9084
:10151000DF90CF90BF90AF909F908F900895A6D40A
:10152000009761F0FC0101900020E9F73197AF01CD
:10153000481B590BBC018EED95E0E2CD80E090E0B8
:1015400008958F929F92AF92BF920F931F93CF9364
:10155000DF93CDB7DEB7A1970FB6F894DEBF0FBE0D
:10156000CDBF19A2423008F44AE08E010F5D1F4F33
:10157000842E912CA12CB12CA50194014DD4E62FE1
:10158000B901CA0101501109EA3014F4E05D01C04B
:10159000E95CD801EC93232B242B252B69F7C80198
:1015A000BFDFA1960FB6F894DEBF0FBECDBFDF91AF
:1015B000CF911F910F91BF90AF909F908F90089502
:1015C000CF92DF92EF92FF92CF93DF936B017C017A
:1015D000E091DE05F091DF050190F081E02D6DE2F4
:1015E0008EED95E01995EC0166277727CB016C19F4
:1015F0007D098E099F094AE0A4DF8C0F9D1FDF91B2
:10160000CF91FF90EF90DF90CF900895CF93DF932D
:1016100087DFEC0183EE94E083DF8C0F9D1FDF9169
:10162000CF9108957DCF0F931F93CF93C82FF2DEF4
:101630008C0165E070E080E090E039DF8C2FEADE1D
:1016400008171907A1F065E070E080E090E02FDF57
:101650008C2FE0DE8C0165E070E080E090E027DF19
:101660008C2FD8DE0817190711F080E090E0CF9199
:101670001F910F910895BC01990F880B990B97FD4D
:101680009FCF4AE05ECFCF93DF93BC01990F880BC9
:10169000990B97FF02C094DF02C04AE052DFEC01D1
:1016A00083EE94E03DDF8C0F9D1FDF91CF91089575
:1016B0000F931F9390E0FC01E35AFD4F6491FC01EE
:1016C000E95EFD4FE491F0E0EE0FFF1FE350FE4FA7
:1016D0008591949100E21EE420E030E0462FFAD09C
:1016E000611571058105910549F0DC01CB01019679
:1016F000A11DB11DBC01CD019F7003C060E070E071
:10170000CB011F910F9108951F920F920FB60F9268
:1017100011240BB60F922F933F934F935F936F93C8
:101720007F938F939F93AF93BF93EF93FF938EED30
:1017300095E05BDDFF91EF91BF91AF919F918F910C
:101740007F916F915F914F913F912F910F900BBEC1
:101750000F900FBE0F901F9018951F920F920FB60B
:101760000F9211240BB60F922F938F939F93EF93A9
:10177000FF93E091EE05F091EF058081E091F40593
:10178000F091F50582FD12C090818091F7058F5F81
:101790008F732091F805821751F0E091F705F0E082
:1017A000E252FA4F958F8093F70501C08081FF9137
:1017B000EF919F918F912F910F900BBE0F900FBEC5
:1017C0000F901F9018951F93CF93DF93282F30E031
:1017D000F901E954FE4F8491F901E35AFD4FD49188
:1017E000F901E95EFD4FC491CC23C1F0162F8111A0
:1017F000BCDDEC2FF0E0EE0FFF1FE356FE4FA5918E
:10180000B4918FB7F894111105C09C91ED2FE0951C
:10181000E92302C0EC91ED2BEC938FBFDF91CF91C8
:101820001F9108951F93CF93DF93182FC3E0D0E04B
:1018300061E0812FC8DF68EC70E080E090E037DE87
:1018400060E0812FC0DF68EC70E080E090E02FDE88
:10185000219771F7DF91CF911F910895CF93DF9377
:1018600090E0FC01E35AFD4F2491FC01E95EFD4F3D
:101870008491882361F190E0880F991FFC01ED5756
:10188000FE4FC591D491FC01E356FE4FA591B49152
:10189000611109C09FB7F8948881209582238883BD
:1018A000EC912E230BC0623061F49FB7F89438811D
:1018B000822F809583238883EC912E2B2C939FBFBE
:1018C00006C08FB7F894E8812E2B28838FBFDF9155
:1018D000CF910895CF92DF92EF92FF920F931F93D3
:1018E000E82FF92F05C0015011092109310961F1D3
:1018F000908196239417B9F305C00150110921096D
:10190000310911F1908196239413F7CFC12CD12C7A
:10191000E12CF12C0AC08FEFC81AD80AE80AF80A9D
:101920000C151D052E053F0579F08081862384174F
:1019300091F36C2D7D2D8E2D9F2D1F910F91FF907A
:10194000EF90DF90CF90089560E070E080E090E04D
:101950001F910F91FF90EF90DF90CF900895EEEDE3
:10196000F5E01382128288EE93E0A0E0B0E0848379
:101970009583A683B78382E692E09183808385EC8A
:1019800090E09587848784EC90E09787868780EC49
:1019900090E0918B808B81EC90E0938B828B82EC3A
:1019A00090E0958B848B86EC90E0978B868B118EE4
:1019B000128E138E148E0895789484B5826084BD3F
:1019C00084B5816084BD85B5826085BD85B5816043
:1019D00085BD80916E00816080936E0010928100C1
:1019E000809181008260809381008091810081607C
:1019F000809381008091800081608093800080913D
:101A0000B10084608093B1008091B00081608093C8
:101A1000B00080919100826080939100809191004C
:101A2000816080939100809190008160809390000C
:101A30008091A10082608093A1008091A1008160CB
:101A40008093A1008091A00081608093A00080918C
:101A50002101826080932101809121018160809326
:101A600021018091200181608093200180917A0082
:101A7000846080937A0080917A00826080937A00FB
:101A800080917A00816080937A0080917A008068EA
:101A900080937A001092C100E091EE05F091EF057D
:101AA00082E08083E091EA05F091EB051082E091FD
:101AB000EC05F091ED058FEC80831092F605E09136
:101AC000F205F091F30586E08083E091F005F09156
:101AD000F105808180618083E091F005F091F1054E
:101AE000808188608083E091F005F091F10580812C
:101AF00080688083E091F005F091F10580818F7D11
:101B0000808386EE94E08EDD80ED92E07FDD85E1DE
:101B100095E07CDDC0EBD2E08881229662E09EDE1B
:101B200082E0C83CD807C1F761E08CE297DE61E053
:101B300080E394DEC0EAD2E08881229662E08EDE05
:101B400082E0C03BD807C1F7C0E9D2E08881229685
:101B500061E084DE82E0C03AD807C1F7CCE7D2E08A
:101B60008881229662E07ADE82E0C039D807C1F728
:101B7000C0E7D2E08881229661E070DE82E0CC3757
:101B8000D807C1F789E295E041DD0E94CF0120919D
:101B9000DD0521110E941202B0DBF7CFFB01DC0151
:101BA0008D91059080190110D9F3990B0895FC01CE
:101BB000A081B181AD01109681F03D91FB010190B2
:101BC00003160110E1F7C9F7002011F4D00102C09B
:101BD0001E921196FC01A083B183CA01089540D0E2
:101BE00008F481E00895E89409C097FB3EF49095CD
:101BF0008095709561957F4F8F4F9F4F9923A9F0E6
:101C0000F92F96E9BB279395F69587957795679574
:101C1000B795F111F8CFFAF4BB0F11F460FF1BC0B8
:101C20006F5F7F4F8F4F9F4F16C0882311F096E94B
:101C300011C0772321F09EE8872F762F05C06623F9
:101C400071F096E8862F70E060E02AF09A95660FB2
:101C5000771F881FDAF7880F9695879597F908956B
:101C6000990F0008550FAA0BE0E8FEEF16161706AD
:101C7000E807F907C0F012161306E407F50798F015
:101C8000621B730B840B950B39F40A2661F0232B2E
:101C9000242B252B21F408950A2609F4A140A695AA
:101CA0008FEF811D811D0895DBDF08F48FEF08950C
:101CB0000BD078C069D028F06ED018F0952309F0C9
:101CC0005AC05FC01124A2C07ED0A0F3959FD1F36B
:101CD000950F50E0551F629FF001729FBB27F00DDA
:101CE000B11D639FAA27F00DB11DAA1F649F66272F
:101CF000B00DA11D661F829F2227B00DA11D621F7E
:101D0000739FB00DA11D621F839FA00D611D221F37
:101D1000749F3327A00D611D231F849F600D211D1B
:101D2000822F762F6A2F11249F5750408AF0E1F0BE
:101D300088234AF0EE0FFF1FBB1F661F771F881F07
:101D400091505040A9F79E3F510570F014C05EC0FD
:101D50005F3FECF3983EDCF3869577956795B795F2
:101D6000F795E7959F5FC1F7FE2B880F911D96951C
:101D7000879597F9089597F99F6780E870E060E08C
:101D800008959FEF80EC089500240A941616170614
:101D900018060906089500240A941216130614065C
:101DA00005060895092E0394000C11F4882352F0BF
:101DB000BB0F40F4BF2B11F460FF04C06F5F7F4F77
:101DC0008F4F9F4F089557FD9058440F551F59F05E
:101DD0005F3F71F04795880F97FB991F61F09F3F18
:101DE00079F087950895121613061406551FF2CF41
:101DF0004695F1DF08C0161617061806991FF1CF91
:101E000086957105610508940895E894BB276627B7
:101E10007727CB0197F90895A1E21A2EAA1BBB1BC5
:101E2000FD010DC0AA1FBB1FEE1FFF1FA217B307A6
:101E3000E407F50720F0A21BB30BE40BF50B661FBC
:101E4000771F881F991F1A9469F760957095809580
:101E500090959B01AC01BD01CF010895EE0FFF1FCE
:101E6000881F8BBF0790F691E02D199481E090E0D8
:101E7000F894C9C20F931F93CF93DF93CDB7DEB70A
:101E80002E970FB6F894DEBF0FBECDBF0E891F8907
:101E900086E08C831A8309838FEF9FE79E838D836F
:101EA000AE01465E5F4F688D798DCE01019611D0EF
:101EB0002F813885F801E20FF31F10822E960FB69E
:101EC000F894DEBF0FBECDBFDF91CF911F910F9170
:101ED00008952F923F924F925F926F927F928F92CE
:101EE0009F92AF92BF92CF92DF92EF92FF920F93A9
:101EF0001F93CF93DF93CDB7DEB72C970FB6F8942F
:101F0000DEBF0FBECDBF7C016B018A01FC011782D1
:101F10001682838181FFB0C1CE0101964C01F70189
:101F20009381F60193FD859193FF81916F01882341
:101F300009F49EC1853239F493FD859193FF819117
:101F40006F01853221F4B70190E0C7D1E8CF512C61
:101F5000312C20E02032A0F48B3269F030F4803252
:101F600059F0833269F420612CC08D3239F080330E
:101F700039F4216026C02260246023C0286021C07B
:101F800027FD27C030ED380F3A3078F426FF06C021
:101F9000FAE05F9E300D1124532E13C08AE0389E64
:101FA000300D1124332E20620CC08E3221F426FD18
:101FB0005FC1206406C08C3611F4206802C08836E8
:101FC00041F4F60193FD859193FF81916F01811199
:101FD000C1CF982F9F7D9554933028F40C5F1F4FED
:101FE000FFE3F9830DC0833631F0833771F0833519
:101FF00009F057C021C0F801808189830E5F1F4F0F
:1020000044244394512C540114C03801F2E06F0E63
:10201000711CF801A080B18026FF03C0652D70E01F
:1020200002C06FEF7FEFC5012C874CD12C018301DB
:102030002C852F77222E16C03801F2E06F0E711C0E
:10204000F801A080B18026FF03C0652D70E002C0BA
:102050006FEF7FEFC5012C872AD12C012C852068DA
:10206000222E830123FC19C0832D90E048165906C7
:10207000A0F4B70180E290E030D13A94F5CFF501B9
:1020800027FC859127FE81915F01B70190E025D162
:1020900031103A94F1E04F1A51084114510479F784
:1020A000DEC0843611F0893631F5F80127FF07C00C
:1020B00060817181828193810C5F1F4F08C06081B4
:1020C0007181072E000C880B990B0E5F1F4F2F7626
:1020D000722E97FF09C090958095709561957F4FFE
:1020E0008F4F9F4F2068722E2AE030E0A4012DD13F
:1020F000A82EA81843C0853729F42F7EB22E2AE0D7
:1021000030E025C0F22FF97FBF2E8F36C1F018F4D2
:10211000883579F0ADC0803719F0883721F0A8C034
:102120002F2F2061B22EB4FE0DC08B2D8460B82EEF
:1021300009C024FF0AC09F2F9660B92E06C028E070
:1021400030E005C020E130E002C020E132E0F801DB
:10215000B7FE07C060817181828193810C5F1F4F40
:1021600006C06081718180E090E00E5F1F4FA40186
:10217000ECD0A82EA818FB2DFF777F2E76FE0BC083
:10218000372D3E7FA51450F474FE0AC072FC08C0BF
:10219000372D3E7E05C0BA2C372D03C0BA2C01C0A6
:1021A000B52C34FF0DC0FE01EA0DF11D8081803396
:1021B00011F4397E09C032FF06C0B394B39404C051
:1021C000832F867809F0B39433FD12C030FF06C028
:1021D0005A2CB31418F4530C5B18B32CB31460F4DA
:1021E000B70180E290E03C8778D0B3943C85F6CF8D
:1021F000B31410F43B1801C0312C34FF11C0B701E7
:1022000080E390E03C8769D03C8532FF16C031FD09
:1022100003C088E790E002C088E590E0B7010CC0F9
:10222000832F867851F031FF02C08BE201C080E23B
:1022300037FD8DE2B70190E050D0A51430F4B7011E
:1022400080E390E04AD05A94F8CFAA94F401EA0DC2
:10225000F11D8081B70190E040D0A110F6CF33206E
:1022600009F45DCEB70180E290E037D03A94F7CF21
:10227000F7018681978102C08FEF9FEF2C960FB6F2
:10228000F894DEBF0FBECDBFDF91CF911F910F91AC
:10229000FF90EF90DF90CF90BF90AF909F908F9086
:1022A0007F906F905F904F903F902F900895FC012A
:1022B0000590615070400110D8F7809590958E0F71
:1022C0009F1F0895FC016150704001900110D8F7E4
:1022D000809590958E0F9F1F08950F931F93CF9316
:1022E000DF93FB01238121FD03C08FEF9FEF28C007
:1022F00022FF16C04681578124813581421753073A
:1023000044F4A081B1819D012F5F3F4F3183208331
:102310008C93268137812F5F3F4F3783268310C0F0
:10232000EB01092F182F0084F185E02D1995892BD9
:10233000E1F68E819F8101969F838E83812F902F5E
:10234000DF91CF911F910F910895FA01AA272830AC
:1023500051F1203181F1E8946F936E7F6E5F7F4F72
:102360008F4F9F4FAF4FB1E03ED0B4E03CD0670FEE
:10237000781F891F9A1FA11D680F791F8A1F911D41
:10238000A11D6A0F711D811D911DA11D20D009F491
:1023900068943F912AE0269F11243019305D3193D3
:1023A000DEF6CF010895462F4770405D4193B3E0BC
:1023B0000FD0C9F7F6CF462F4F70405D4A3318F063
:1023C000495D31FD4052419302D0A9F7EACFB4E014
:1023D000A6959795879577956795BA95C9F70097CC
:1023E0006105710508959B01AC010A2E069457956D
:1023F000479537952795BA95C9F7620F731F841FC4
:0A240000951FA01D0895F894FFCF6A
:10240A000700080009000A000B0000000100000094
:10241A00000042004300440045000200030004009B
:10242A000500060020004000C0008000A000000057
:10243A000000000016001A002000220024002600D6
:10244A002800170019001B001D001F00210023008F
:10245A002500270029002B002D002F003100000045
:10246A00000016098008AF085C09E008BE08D20817
:10247A00020003000400050006000D000700080022
:10248A0009000A000B0042004300440045000C000A
:10249A00170019001B001D001F0021002300350032
:1024AA002500270029002B002D002F0031003300C2
:1024BA00160018001A001C001E002000220024002A
:1024CA00260028002A002E0052535400474657007F
:1024DA00312E302E310053413141005374617274F0
:1024EA00206F66204173736573736D656E74203156
:1024FA00410050555A5A4C452050494E2000203A26
:10250A0020004131412053544F5020444554454303
:10251A005445442100535431413A20256400534123
:10252A0031413A20256400534131420053746172AB
:10253A0074206F66204173736573736D656E7420C2
:10254A00314200415353454D424C592050494E2087
:10255A0000205052455353454420004131422053F4
:10256A00544F502044455445435445442100535444
:10257A0031423A20256400534131423A2025640011
:10258A00534132005374617274206F662041737331
:10259A006573736D656E742032004173736573736E
:1025AA006D656E74203220627574746F6E2070725D
:1025BA0065737365640041322053544F502044457B
:1025CA005445435445442100456E64206F662041BA
:1025DA0073736573736D656E7420320041322053D4
:1025EA00544F50005354323A202564005341323A32
:1025FA0020256400534133005354333A20256400A4
:10260A005341333A20256400475231410047523141
:10261A00413A202564004752314200475231423A3A
:10262A0020256400475232004752323A202564007E
:10263A00475233004752333A20256400537461727B
:10264A0074206F66204173736573736D656E7420B1
:10265A0033003A2050574D2056414C55453A2000F8
:10266A005220004220005920005720004B200041F0
:10267A0073736573736D656E742033206275747439
:10268A006F6E207072657373656400413320535412
:10269A004F5020444554454354454421003A203183
:1026AA0050574D2056414C55453A20005220474F2D
:1026BA004F44004220474F4F44005920474F4F4450
:1026CA00005720474F4F44004B20474F4F44004587
:1026DA006E64206F66204173736573736D656E74E3
:1026EA002033000D0A005374617274696E672052B8
:1026FA00534D464720736B696C6C73206173736525
:10270A0073736D656E742074657374207665727365
:10271A00696F6E2000436F6E6669677572696E67CE
:10272A002070696E732E2E2E0050696E7320636FAF
:0A273A006E66696775726564000041
:00000001FF
