:1000000052C1000081C100007FC100007DC100001D
:100010007BC1000079C1000077C1000075C10000FC
:1000200073C1000071C100006FC100006DC100000C
:100030006BC1000069C1000067C1000065C100001C
:1000400063C1000061C100005FC100005DC100002C
:100050005BC1000059C1000057C100000C94FB0BAC
:1000600053C100000C943E0B0C94150B4DC10000C5
:100070004BC1000049C1000047C1000045C100005C
:1000800043C1000041C100003FC100003DC100006C
:100090003BC1000039C1000037C1000035C100007C
:1000A00033C1000031C100002FC100002DC100008C
:1000B0002BC1000029C1000027C1000025C100009C
:1000C00023C1000021C100001FC100001DC10000AC
:1000D0001BC1000019C1000017C1000015C10000BC
:1000E00013C10000130518051D0527053105AA05D4
:1000F0003B0543054B0555055F05690578058205F8
:10010000AA058C059605A0056009630952095609E0
:100110005C099A0967096B097109750979097F09F1
:10012000830987099A098D09910995094572726FAA
:10013000723A20556E6B6E6F776E20636F6D6D61D6
:100140006E643A2000475233004752320047523122
:10015000420047523141005354330053543200534C
:100160005431420053543141005341330053413222
:10017000005341314200534131410047465700523C
:1001800053540000002100240027002A002D0030D5
:1001900000330001010000040107010A01000022F0
:1001A00000250028002B002E003100340002010041
:1001B00000050108010B0100000A0B02090C0D0EDD
:1001C0000807030401000000000000000000000018
:1001D000000000000000000000000000000000001F
:1001E00000000012111000000000000000000000DC
:1001F00000000000000000000000000000000020DF
:10020000002300260029002C002F003200000100EE
:100210000003010601090105050505070508080891
:1002200008020202020A0A08080404040401010187
:10023000010101010103030303030303030407078F
:10024000070C0C0C0C0C0C0C0C020202020606062D
:1002500006060606060B0B0B0B0B0B0B0B01021015
:1002600020200808102040102040800201020108D0
:100270000402010102040810204080804020100880
:1002800004020180040201804020100804020108D9
:100290000402010102040810204080010204081039
:1002A00020408000CD0C11241FBECFEFD1E2DEBF75
:1002B000CDBF00E00CBF15E0A0E0B2E0E4E4F4E262
:1002C00000E00BBF02C007900D92A832B107D9F72A
:1002D00026E0A8E2B5E001C01D92A936B207E1F719
:1002E00011E0C3E5D1E000E006C021970109802FAD
:1002F000FE010E944B0FC235D10780E00807A9F725
:100300000E94FA0C0C9420127BCEAF92BF92CF9237
:10031000DF92EF92FF920F931F93CF93DF93CDB7AE
:10032000DEB7C258D1090FB6F894DEBF0FBECDBFFD
:10033000CF57DF4F99838883C158D04060E073E086
:10034000CE018F579F4F0E94F40D8C016FE771E033
:100350000E94EB0D892B29F588EC92E00E94970A08
:1003600010923B0510923A05109235051092340513
:1003700010922F0510922E05109229051092280533
:1003800010923F05109239051092330510922D05F9
:1003900010923E05109238051092320510922C05ED
:1003A000F7C26BE771E0C8010E94EB0D892B39F4AD
:1003B0008CEC92E00E94970A80ED92E0D7C266E74B
:1003C00071E0C8010E94EB0D892B09F09AC0809161
:1003D0003F058111DDC286ED92E00E94970A1092DE
:1003E0003E0581E080933F058BED92E00E94970AE5
:1003F00061E08CE20E94740B80913E05811149C03E
:100400000E94450C2091400521117FDF10923B0591
:1004100010923A0504E312E02EE2E22E22E0F22EE0
:10042000F801C190D1908F01C6010E94A40A5C011D
:10043000F701819191917F01A816B906C1F420912D
:100440003A0530913B052F5F3F4F30933B0520939A
:100450003A0582EF92E00E94A30AC6010E94CC0AEC
:100460008EEF92E00E94A30AC5010E94D40AF2E036
:100470000A331F07A9F68AE290E00E94A40A0097B7
:1004800029F48CE290E00E94A30B03C0019709F4C9
:10049000B3CF80913E05882321F082E093E00E9453
:1004A000970A60E08CE20E94740B10923F058091E5
:1004B0003A0590913B0580933C0590933D05209132
:1004C0003E058E010F5F1F4F222329F09F938F93CC
:1004D00085E193E004C09F938F938EE193E09F9317
:1004E0008F931F930F930E94570F0F900F900F90B1
:1004F0000F900F900F90C8010E94970A10923F052D
:1005000047C261E771E0C8010E94EB0D892B09F039
:1005100085C08091390581113BC287E293E00E943A
:10052000970A1092380581E0809339058CE293E0B8
:10053000FED761E080E30E94740B80913805811141
:1005400037C00E94450C209140052111DEDE10923B
:100550003505109234050AE312E0F801E190F190BC
:100560008F01C701F1D7892B91F483E493E0EBD796
:10057000C7010E94CC0A81E593E0D9D78091340568
:100580009091350501969093350580933405F2E0FE
:1005900002341F0711F78EE290E0D6D7009729F4B6
:1005A00080E390E00E94A30B03C0019709F4C5CF3C
:1005B00080913805882319F08BE593E0B8D760E087
:1005C00080E30E94740B109239058091340590915C
:1005D00035058093360590933705209138058E01B7
:1005E0000F5F1F4F222329F09F938F938EE693E096
:1005F00004C09F938F9387E793E09F938F931F93FC
:100600000F930E94570F0F900F900F900F900F9025
:100610000F90C8018CD710923905BAC16DE671E010
:10062000C8010E94EB0D892B09F0AFC08091330502
:100630008111AEC180E893E07AD71092320581E053
:100640008093330584E893E072D761E085E30E94EC
:10065000740B8091320581114DC00E94450C209190
:100660004005211152DE10922F0510922E0500E553
:1006700012E092E4E92E92E0F92EF8018081918156
:1006800063D7019731F460E0F70180810E94740B19
:1006900018C080912E0590912F05019690932F05FB
:1006A00080932E0561E0F70180810E94740B89EF31
:1006B00092E049D7F801808191816ED781E593E07E
:1006C00036D70E5F1F4FF2E0EF0EF11C22E00E3521
:1006D000120799F683E390E037D7009741F485E35A
:1006E00090E00E94A30B8AE993E021D703C0019711
:1006F00009F4AFCF80913205882319F086EB93E09F
:1007000016D702E412E0F80180810E5F1F4F60E00F
:10071000EBD7F2E000351F07B1F760E085E3E4D7DF
:1007200088EC93E004D71092330580912E059091C8
:100730002F058093300590933105209132058E016D
:100740000F5F1F4F222361F08CED93E0F0D6809174
:100750002F058F9380912E058F9384EE93E004C034
:100760009F938F938CEE93E09F938F931F930F93A0
:100770000E94570F0F900F900F900F900F900F90B7
:10078000C801D5D61092330503C169E671E0C801EE
:100790000E94EB0D892B99F580912D058111F8C0F0
:1007A00084EF93E0C4D610922C0504D190932B05CE
:1007B00080932A0520912C058E010F5F1F4F909189
:1007C000290580912805222329F09F938F9388EF94
:1007D00093E004C09F938F9380E094E09F938F9366
:1007E0001F930F930E94570F0F900F900F900F9031
:1007F0000F900F90C8019BD610922D05C9C064E6DA
:1008000071E0C8010E94EB0D892B61F481E08093B7
:100810003E0580913B058F9380913A058F9385E14A
:1008200093E089C06FE571E0C8010E94EB0D892B50
:1008300061F481E080933805809135058F93809134
:1008400034058F938EE693E076C06BE571E0C801C6
:100850000E94EB0D892B61F481E080933205809139
:100860002F058F9380912E058F9384EE93E063C0C4
:1008700067E571E0C8010E94EB0D892B89F481E0E6
:1008800080932C0597D090932B0580932A05809117
:1008900029058F93809128058F9388EF93E04BC0B3
:1008A00062E571E0C8010E94EB0D892B61F488E0DC
:1008B00094E03DD680913B058F9380913A058F93CC
:1008C0008DE094E038C06DE471E0C8010E94EB0D4A
:1008D000892B61F486E194E02AD6809135058F93C7
:1008E000809134058F938BE194E025C069E471E039
:1008F000C8010E94EB0D892B61F484E294E017D6C5
:1009000080912F058F9380912E058F9388E294E03C
:1009100012C065E471E0C8010E94EB0D892BE9F477
:1009200080E394E004D6809129058F938091280577
:100930008F9384E394E09F938F938E010F5F1F4FFB
:100940001F930F930E94570FC801F1D50F900F907E
:100950000F900F900F900F901BC08CE2E82E81E05B
:10096000F82EF7016491611103C0C801E0D510C0F1
:10097000E0914105F09142050190F081E02D81E484
:1009800095E01995FFEFEF1AFF0A892B51F7EDCF8C
:10099000CE57DF4F0FB6F894DEBF0FBECDBFDF914D
:1009A000CF911F910F91FF90EF90DF90CF90BF906C
:1009B000AF900895CF92DF92EF92FF920F931F9323
:1009C000CF93DF9381E080932D058CE394E0AFD546
:1009D00004E212E08AE1E82E82E0F82EF801C191EB
:1009E000D1918F01F701C190D1907F0161E08C2DF1
:1009F000C6D6209709F4B1C0CF3FD10509F4AFC0E6
:100A0000F601FF27E954FE4FE4914E2F50E0FA0122
:100A10003197E231F10508F09DC08827EE58FF4F6D
:100A20008F4F0C944B0F84B5806884BDC7BD9AC0AE
:100A300084B5806284BDC8BD95C080918000806807
:100A400080938000D0938900C09388008BC08091F0
:100A50008000806280938000D0938B00C0938A00D6
:100A600081C080918000886080938000D0938D0049
:100A7000C0938C0077C08091B00080688093B000F4
:100A8000C093B3006FC08091B00080628093B000CB
:100A9000C093B40067C080919000806880939000FC
:100AA000D0939900C09398005DC0809190008062BF
:100AB00080939000D0939B00C0939A0053C0809184
:100AC0009000886080939000D0939D00C0939C001C
:100AD00049C08091A00080688093A0008091A00010
:100AE0008F7B8093A000D093A900C093A8003AC048
:100AF0008091A00080628093A000D093AB00C0934F
:100B0000AA0030C08091A00088608093A000D0939C
:100B1000AD00C093AC0026C0809120018068809316
:100B20002001D0932901C09328011CC0809120018D
:100B3000806280932001D0932B01C0932A0112C0C0
:100B400080912001886080932001D0932D01C09373
:100B50002C0108C0C038D10514F460E001C061E088
:100B60008C2DC2D582E00033180709F037CF61E041
:100B70008DE0BAD580912C0581113AC110922905DA
:100B80001092280582D6209140052111BEDBC2E1DA
:100B9000D2E00AE012E089919991D6D4F80121912E
:100BA00031918F018217930749F480912805909124
:100BB000290501969093290580932805F2E0CA3112
:100BC000DF0749F700E012E0C0E0D0E0F8018081E3
:100BD0000E5F1F4FFED4209759F5072E000C880B8F
:100BE000990B0E94120E6B017C012DEC3CEC4CE841
:100BF0005FE30E94750E20E030E040E454E40E9480
:100C0000710E87FD12C026E636E646E65FE3C701B1
:100C1000B6010E94750E20E030E040E454E4FCD7B9
:100C200018161CF081E090E084C081E090E0BEC026
:100C3000C130D10551F5072E000C880B990BF2D766
:100C40006B017C012DEC3CEC4CE85FE30E94750EDF
:100C500020E030E040E853E40E94710E87FD12C0AE
:100C600026E636E646E65FE3C701B6010E94750E4A
:100C700020E030E040E853E4CFD718161CF082E0C3
:100C800090E057C082E090E091C0C230D10551F5AC
:100C9000072E000C880B990BC5D76B017C012DEC3E
:100CA0003CEC4CE85FE30E94750E20E030E040E849
:100CB00054E40E94710E87FD12C026E636E646E631
:100CC0005FE3C701B6010E94750E20E030E040E806
:100CD00054E4A2D718161CF083E090E02AC083E009
:100CE00090E064C0C330D10509F037C0072E000C76
:100CF000880B990B97D76B017C012DEC3CEC4CE8F1
:100D00005FE3F3D720E030E040E054E4EAD787FD2A
:100D100021C026E636E646E65FE3C701B601E5D721
:100D200020E030E040E054E477D718169CF084E0EF
:100D300090E032D482E594E006D488E594E0F7D3DD
:100D4000809128059091290501969093290580931B
:100D5000280533C084E090E029C0C430D10569F58E
:100D6000072E000C880B990B5DD76B017C012DECD5
:100D70003CEC4CE85FE3B9D720E030E040EA54E4D3
:100D8000B0D787FD11C026E636E646E65FE3C70129
:100D9000B601ABD720E030E040EA54E43DD7181666
:100DA0001CF085E090E0C5CF85E090E0F5D382E5CA
:100DB00094E0C9D384E295E0BAD32196C530D10539
:100DC00009F004CF8CE090E0BFD3EC01892B31F423
:100DD0008DE090E0B8D48EE594E0A9D380912C0505
:100DE000882319F08AE794E0A2D3219709F4C2CEB0
:100DF0001092290510922805C2E1D2E00AE012E023
:100E000089919991A1D3F801219131918F01821794
:100E1000930749F4809128059091290501969093B4
:100E2000290580932805F2E0CA31DF0749F700E081
:100E300012E0C0E0D0E0F80180810E5F1F4FC9D3FF
:100E40006B017C01CE01A8D38CE894E07CD3C60171
:100E5000ABD3209729F5B601DD0C880B990BE2D6B0
:100E60006B017C012DEC3CEC4CE85FE33ED720E0CD
:100E700030E040E454E435D787FDB9C026E636E6D5
:100E800046E65FE3C701B60130D720E030E040E43A
:100E900054E4C2D618160CF4AAC08BE994E09DC0A5
:100EA000C130D10529F5B601DD0C880B990BBAD6F6
:100EB0006B017C012DEC3CEC4CE85FE316D720E0A5
:100EC00030E040E853E40DD787FD91C026E636E6D2
:100ED00046E65FE3C701B60108D720E030E040E80E
:100EE00053E49AD618160CF482C082EA94E075C0D6
:100EF000C230D10529F5B601DD0C880B990B92D6CD
:100F00006B017C012DEC3CEC4CE85FE3EED620E07D
:100F100030E040E854E4E5D687FD69C026E636E6D1
:100F200046E65FE3C701B601E0D620E030E040E8E6
:100F300054E472D618160CF45AC089EA94E04DC0F5
:100F4000C330D10521F5B601DD0C880B990B6AD6AB
:100F50006B017C012DEC3CEC4CE85FE3C6D620E055
:100F600030E040E054E4BDD687FD41C026E636E6D9
:100F700046E65FE3C701B601B8D620E030E040E0C6
:100F800054E44AD618169CF180EB94E026C0C43095
:100F9000D10569F5B601DD0C880B990B43D66B01C1
:100FA0007C012DEC3CEC4CE85FE39FD620E030E088
:100FB00040EA54E496D687FD1AC026E636E646E6B1
:100FC0005FE3C701B60191D620E030E040EA54E487
:100FD00023D6181664F087EB94E0A9D280912805F7
:100FE00090912905019690932905809328052196D3
:100FF000C530D10509F01FCF10922D0560E08DE0BE
:1010000073D38EEB94E093D28091280590912905BB
:10101000DF91CF911F910F91FF90EF90DF90CF90D4
:101020000895CF92DF92EF92FF920F931F93CF9389
:10103000DF936C017A018B01C0E0D0E0CE15DF05B3
:1010400089F0D8016D918D01D601ED91FC9101904F
:10105000F081E02DC6011995892B11F47E0102C0A3
:101060002196ECCFC701DF91CF911F910F91FF9097
:10107000EF90DF90CF900895089580E090E008957C
:10108000FC01538D448D252F30E0842F90E0821B8E
:10109000930B541710F0CF96089501970895FC0113
:1010A000918D828D981761F0828DDF01A80FB11D9F
:1010B0005D968C91928D9F5F9F73928F90E00895C3
:1010C0008FEF9FEF0895FC01918D828D981731F07D
:1010D000828DE80FF11D858D90E008958FEF9FEFD1
:1010E0000895FC01918D228D892F90E0805C9F4FA7
:1010F000821B91098F739927089581E495E0F1DFB0
:1011000021E0892B09F420E0822F0895FC01848DD1
:10111000DF01A80FB11DA35ABF4F2C91848D90E021
:1011200001968F739927848FA689B7892C93A089FC
:10113000B1898C9180648C93938D848D981306C0B3
:101140000288F389E02D80818F7D80830895EF925E
:10115000FF920F931F93CF93DF93EC0181E0888F71
:101160009B8D8C8D981305C0E889F989808185FD58
:1011700023C0F62E0B8D10E00F5F1F4F0F7311274A
:10118000E02E8C8DE8120BC00FB607FCFACFE88971
:10119000F989808185FFF5CFCE01B8DFF2CF8B8D45
:1011A000FE01E80FF11DE35AFF4FF0820B8FEA8931
:1011B000FB898081806207C0EE89FF896083E889AE
:1011C000F98980818064808381E090E0DF91CF9114
:1011D0001F910F91FF90EF900895CF93DF93EC0153
:1011E000888D8823C1F0EA89FB89808185FD05C04F
:1011F000A889B9898C9186FD0EC00FB607FCF5CF82
:10120000808185FFF2CFA889B9898C9185FFEDCFC8
:10121000CE017CDFE8CFDF91CF91089580E090E0B0
:10122000892B19F06ADF811125C080E090E0892BBD
:1012300041F080E090E0892B21F00E9400008111B4
:101240001CC080E090E0892B41F080E090E0892B89
:1012500021F00E940000811113C080E090E0892BF2
:10126000A1F080E090E0892B81F00E9400008111C4
:101270000AC008950E940000D8CF0E940000E1CF6C
:101280000E940000EACF0C940000089590E0FC0159
:101290003197E231F10508F04DC08827EC57FF4F38
:1012A0008F4FF9C5809180008F7703C080918000B7
:1012B0008F7D80938000089580918000877FF9CF93
:1012C00084B58F7702C084B58F7D84BD08958091E9
:1012D000B0008F7703C08091B0008F7D8093B00005
:1012E0000895809190008F7707C0809190008F7D46
:1012F00003C080919000877F809390000895809133
:10130000A0008F7707C08091A0008F7D03C08091DF
:10131000A000877F8093A0000895809120018F779F
:1013200007C0809120018F7D03C080912001877FBD
:10133000809320010895CF93DF93282F30E0F901A7
:10134000E954FE4F8491F901E35AFD4FD491F9011C
:10135000E95EFD4FC491CC2389F0811197DFEC2F1A
:10136000F0E0EE0FFF1FE350FE4FA591B491EC911A
:10137000ED2381E090E021F480E002C080E090E085
:10138000DF91CF9108953FB7F894809165069091D1
:101390006606A0916706B091680626B5A89B05C0B1
:1013A0002F3F19F00196A11DB11D3FBFBA2FA92FE4
:1013B000982F8827820F911DA11DB11DBC01CD0161
:1013C00042E0660F771F881F991F4A95D1F708954D
:1013D0008F929F92AF92BF92CF92DF92EF92FF9245
:1013E0006B017C01D0DF4B015C01C114D104E1042D
:1013F000F104E9F0C8DFDC01CB0188199909AA09D9
:10140000BB09883E9340A105B10578F321E0C21ADB
:10141000D108E108F10888EE880E83E0981EA11C2F
:10142000B11CC114D104E104F10421F7DECFFF9017
:10143000EF90DF90CF90BF90AF909F908F900895E6
:10144000009761F0FC0101900020E9F73197AF01AE
:10145000481B590BBC0181E495E0E3CD80E090E0AE
:1014600008958F929F92AF92BF920F931F93CF9345
:10147000DF93CDB7DEB7A1970FB6F894DEBF0FBEEE
:10148000CDBF19A2423008F44AE08E010F5D1F4F14
:10149000842E912CA12CB12CA5019401DAD4E62F35
:1014A000B901CA0101501109EA3014F4E05D01C02C
:1014B000E95CD801EC93232B242B252B69F7C80179
:1014C000BFDFA1960FB6F894DEBF0FBECDBFDF9190
:1014D000CF911F910F91BF90AF909F908F900895E3
:1014E000CF92DF92EF92FF92CF93DF936B017C015B
:1014F000E0914105F09142050190F081E02D6DE20F
:1015000081E495E01995EC0166277727CB016C19EA
:101510007D098E099F094AE0A4DF8C0F9D1FDF9192
:10152000CF91FF90EF90DF90CF900895BCD4CF93F0
:10153000DF9386DFEC0182ED94E082DF8C0F9D1F4C
:10154000DF91CF9108957CCF0F931F93CF93C82F36
:10155000F2DE8C0165E070E080E090E039DF8C2FF6
:10156000EADE08171907A1F065E070E080E090E07E
:101570002FDF8C2FE0DE8C0165E070E080E090E0F2
:1015800027DF8C2FD8DE0817190711F080E090E0D4
:10159000CF911F910F910895BC01990F880B990B62
:1015A00097FD9ECF4AE05DCFCF93DF93BC01990FAB
:1015B000880B990B97FF02C093DF02C04AE051DF0E
:1015C000EC0182ED94E03CDF8C0F9D1FDF91CF9109
:1015D00008950F931F9390E0FC01E35AFD4F64912F
:1015E000FC01E95EFD4FE491F0E0EE0FFF1FE350D8
:1015F000FE4F8591949100E21EE420E030E0462FFA
:1016000087D1611571058105910549F0DC01CB0198
:101610000196A11DB11DBC01CD019F7003C060E00A
:1016200070E0CB011F910F9108951F920F920FB69A
:101630000F9211240BB60F922F933F934F935F930A
:101640006F937F938F939F93AF93BF93EF93FF938A
:1016500081E495E05BDDFF91EF91BF91AF919F91A8
:101660008F917F916F915F914F913F912F910F904B
:101670000BBE0F900FBE0F901F9018951F920F92E8
:101680000FB60F9211240BB60F922F938F939F9347
:10169000EF93FF93E0915105F09152058081E09125
:1016A0005705F091580582FD12C0908180915A052E
:1016B0008F5F8F7320915B05821751F0E0915A057F
:1016C000F0E0EF5BFA4F958F80935A0501C080815F
:1016D000FF91EF919F918F912F910F900BBE0F90E3
:1016E0000FBE0F901F9018951F93CF93DF93282F55
:1016F00030E0F901E954FE4F8491F901E35AFD4FBE
:10170000D491F901E95EFD4FC491CC23C1F0162FAD
:101710008111BCDDEC2FF0E0EE0FFF1FE356FE4F12
:10172000A591B4918FB7F894111105C09C91ED2F3C
:10173000E095E92302C0EC91ED2BEC938FBFDF9194
:10174000CF911F9108951F93CF93DF93182FC3E07C
:10175000D0E061E0812FC8DF68EC70E080E090E0CD
:1017600037DE60E0812FC0DF68EC70E080E090E061
:101770002FDE219771F7DF91CF911F910895CF93BD
:10178000DF9390E0FC01E35AFD4F2491FC01E95EF8
:10179000FD4F8491882361F190E0880F991FFC012F
:1017A000ED57FE4FC591D491FC01E356FE4FA59134
:1017B000B491611109C09FB7F89488812095822364
:1017C0008883EC912E230BC0623061F49FB7F894AC
:1017D0003881822F809583238883EC912E2B2C9344
:1017E0009FBF06C08FB7F894E8812E2B28838FBF48
:1017F000DF91CF9108951F920F920FB60F9211248F
:101800002F933F938F939F93AF93BF9380916106E4
:1018100090916206A0916306B091640630916006D3
:1018200023E0230F2D3720F40196A11DB11D05C023
:1018300026E8230F0296A11DB11D20936006809318
:10184000610690936206A0936306B093640680914C
:10185000650690916606A0916706B09168060196AC
:10186000A11DB11D8093650690936606A09367063F
:10187000B0936806BF91AF919F918F913F912F9147
:101880000F900FBE0F901F901895CF9310924005A8
:10189000C1E081E495E025DC892BB1F181E495E09C
:1018A000FEDB20915E0630915F068830910519F0CD
:1018B0008F37910551F42115310559F32150310924
:1018C00030935F0620935E06E4CF8D30910569F476
:1018D000F901E252FA4F1082232B11F0C093400518
:1018E00010925F0610925E06D4CF2F3731058CF62A
:1018F000A9014F5F5F4F50935F0640935E06F90169
:10190000E252FA4F8083C5CF8EED95E0CF910895D6
:10191000CF92DF92EF92FF920F931F93E82FF92F50
:1019200005C0015011092109310961F19081962307
:101930009417B9F305C0015011092109310911F1BA
:10194000908196239413F7CFC12CD12CE12CF12C4C
:101950000AC08FEFC81AD80AE80AF80A0C151D0544
:101960002E053F0579F080818623841791F36C2D35
:101970007D2D8E2D9F2D1F910F91FF90EF90DF9069
:10198000CF90089560E070E080E090E01F910F91AB
:10199000FF90EF90DF90CF900895E1E4F5E013829F
:1019A000128288EE93E0A0E0B0E084839583A68362
:1019B000B78382E692E09183808385EC90E09587FF
:1019C000848784EC90E09787868780EC90E0918B09
:1019D000808B81EC90E0938B828B82EC90E0958BF6
:1019E000848B86EC90E0978B868B118E128E138EF3
:1019F000148E0895789484B5826084BD84B5816026
:101A000084BD85B5826085BD85B5816085BD8091C9
:101A10006E00816080936E00109281008091810041
:101A20008260809381008091810081608093810039
:101A3000809180008160809380008091B1008460FB
:101A40008093B1008091B00081608093B00080915C
:101A500091008260809391008091910081608093D9
:101A60009100809190008160809390008091A1000E
:101A700082608093A1008091A10081608093A10089
:101A80008091A00081608093A000809121018260FC
:101A900080932101809121018160809321018091B7
:101AA000200181608093200180917A00846080937E
:101AB0007A0080917A00826080937A0080917A0027
:101AC000816080937A0080917A00806880937A00A8
:101AD0001092C100E0915105F091520582E080839F
:101AE000E0914D05F0914E051082E0914F05F09187
:101AF00050058FEC808310925905E0915505F091C7
:101B0000560586E08083E0915305F091540580816D
:101B100080618083E0915305F09154058081886055
:101B20008083E0915305F091540580818068808323
:101B3000E0915305F091540580818F7D808385ED80
:101B400094E001DD80ED92E0F2DC84E095E0EFDCF2
:101B5000C0EBD2E08881229662E011DE82E0C83CD0
:101B6000D807C1F761E08CE20ADE61E080E307DEBE
:101B7000C0EAD2E08881229662E001DE82E0C03BCA
:101B8000D807C1F7C0E9D2E08881229661E0F7DD8D
:101B900082E0C03AD807C1F7CCE7D2E0888122962C
:101BA00062E0EDDD82E0C039D807C1F7C0E7D2E0DE
:101BB0008881229661E0E3DD82E0CC37D807C1F767
:101BC00088E195E0B4DC61DE2091400521110E949E
:101BD000850124DBF8CFFB01DC018D910590801994
:101BE0000110D9F3990B0895FC01A081B181AD01D9
:101BF000109681F03D91FB01019003160110E1F771
:101C0000C9F7002011F4D00102C01E921196FC0108
:101C1000A083B183CA01089540D008F481E00895FB
:101C2000E89409C097FB3EF4909580957095619576
:101C30007F4F8F4F9F4F9923A9F0F92F96E9BB272C
:101C40009395F695879577956795B795F111F8CFA8
:101C5000FAF4BB0F11F460FF1BC06F5F7F4F8F4F13
:101C60009F4F16C0882311F096E911C0772321F009
:101C70009EE8872F762F05C0662371F096E8862FA1
:101C800070E060E02AF09A95660F771F881FDAF7F8
:101C9000880F9695879597F90895990F0008550F25
:101CA000AA0BE0E8FEEF16161706E807F907C0F0E2
:101CB00012161306E407F50798F0621B730B840BEA
:101CC000950B39F40A2661F0232B242B252B21F4C4
:101CD00008950A2609F4A140A6958FEF811D811D64
:101CE0000895DBDF08F48FEF08950BD078C069D03A
:101CF00028F06ED018F0952309F05AC05FC0112467
:101D0000A2C07ED0A0F3959FD1F3950F50E0551F50
:101D1000629FF001729FBB27F00DB11D639FAA2740
:101D2000F00DB11DAA1F649F6627B00DA11D661F8F
:101D3000829F2227B00DA11D621F739FB00DA11DB0
:101D4000621F839FA00D611D221F749F3327A00D6A
:101D5000611D231F849F600D211D822F762F6A2F06
:101D600011249F5750408AF0E1F088234AF0EE0F8B
:101D7000FF1FBB1F661F771F881F91505040A9F798
:101D80009E3F510570F014C05EC05F3FECF3983E7B
:101D9000DCF3869577956795B795F795E7959F5FFF
:101DA000C1F7FE2B880F911D9695879597F9089599
:101DB00097F99F6780E870E060E008959FEF80ECFE
:101DC000089500240A9416161706180609060895A1
:101DD00000240A9412161306140605060895092E07
:101DE0000394000C11F4882352F0BB0F40F4BF2B76
:101DF00011F460FF04C06F5F7F4F8F4F9F4F0895B6
:101E000057FD9058440F551F59F05F3F71F04795AB
:101E1000880F97FB991F61F09F3F79F08795089590
:101E2000121613061406551FF2CF4695F1DF08C0AF
:101E3000161617061806991FF1CF869571056105CC
:101E400008940895E894BB2766277727CB0197F974
:101E50000895A1E21A2EAA1BBB1BFD010DC0AA1FEB
:101E6000BB1FEE1FFF1FA217B307E407F50720F003
:101E7000A21BB30BE40BF50B661F771F881F991F7E
:101E80001A9469F760957095809590959B01AC01C7
:101E9000BD01CF010895EE0FFF1F881F8BBF079074
:101EA000F691E02D199481E090E0F894C9C20F9367
:101EB0001F93CF93DF93CDB7DEB72E970FB6F8946D
:101EC000DEBF0FBECDBF0E891F8986E08C831A83CB
:101ED00009838FEF9FE79E838D83AE01465E5F4F40
:101EE000688D798DCE01019611D02F813885F8014A
:101EF000E20FF31F10822E960FB6F894DEBF0FBECE
:101F0000CDBFDF91CF911F910F9108952F923F92F6
:101F10004F925F926F927F928F929F92AF92BF92F9
:101F2000CF92DF92EF92FF920F931F93CF93DF93A5
:101F3000CDB7DEB72C970FB6F894DEBF0FBECDBF7E
:101F40007C016B018A01FC0117821682838181FF6B
:101F5000B0C1CE0101964C01F7019381F60193FDCA
:101F6000859193FF81916F01882309F49EC1853289
:101F700039F493FD859193FF81916F01853221F4AE
:101F8000B70190E0C7D1E8CF512C312C20E02032AE
:101F9000A0F48B3269F030F4803259F0833269F466
:101FA00020612CC08D3239F0803339F4216026C095
:101FB0002260246023C0286021C027FD27C030EDA7
:101FC000380F3A3078F426FF06C0FAE05F9E300DF5
:101FD0001124532E13C08AE0389E300D1124332E65
:101FE00020620CC08E3221F426FD5FC1206406C041
:101FF0008C3611F4206802C0883641F4F60193FD56
:10200000859193FF81916F018111C1CF982F9F7DA1
:102010009554933028F40C5F1F4FFFE3F9830DC0F4
:10202000833631F0833771F0833509F057C021C012
:10203000F801808189830E5F1F4F44244394512C03
:10204000540114C03801F2E06F0E711CF801A08039
:10205000B18026FF03C0652D70E002C06FEF7FEFF7
:10206000C5012C874CD12C0183012C852F77222E82
:1020700016C03801F2E06F0E711CF801A080B1802B
:1020800026FF03C0652D70E002C06FEF7FEFC50132
:102090002C872AD12C012C852068222E830123FC39
:1020A00019C0832D90E048165906A0F4B70180E2CC
:1020B00090E030D13A94F5CFF50127FC859127FEC9
:1020C00081915F01B70190E025D131103A94F1E0A0
:1020D0004F1A51084114510479F7DEC0843611F0CB
:1020E000893631F5F80127FF07C06081718182814F
:1020F00093810C5F1F4F08C060817181072E000C17
:10210000880B990B0E5F1F4F2F76722E97FF09C019
:1021100090958095709561957F4F8F4F9F4F206868
:10212000722E2AE030E0A4012DD1A82EA81843C0B9
:10213000853729F42F7EB22E2AE030E025C0F22F19
:10214000F97FBF2E8F36C1F018F4883579F0ADC015
:10215000803719F0883721F0A8C02F2F2061B22EC8
:10216000B4FE0DC08B2D8460B82E09C024FF0AC0B8
:102170009F2F9660B92E06C028E030E005C020E110
:1021800030E002C020E132E0F801B7FE07C0608114
:102190007181828193810C5F1F4F06C060817181C4
:1021A00080E090E00E5F1F4FA401ECD0A82EA8188D
:1021B000FB2DFF777F2E76FE0BC0372D3E7FA514BB
:1021C00050F474FE0AC072FC08C0372D3E7E05C074
:1021D000BA2C372D03C0BA2C01C0B52C34FF0DC06A
:1021E000FE01EA0DF11D8081803311F4397E09C0B2
:1021F00032FF06C0B394B39404C0832F867809F0ED
:10220000B39433FD12C030FF06C05A2CB31418F437
:10221000530C5B18B32CB31460F4B70180E290E068
:102220003C8778D0B3943C85F6CFB31410F43B18B8
:1022300001C0312C34FF11C0B70180E390E03C872E
:1022400069D03C8532FF16C031FD03C088E790E0BD
:1022500002C088E590E0B7010CC0832F867851F06A
:1022600031FF02C08BE201C080E237FD8DE2B70191
:1022700090E050D0A51430F4B70180E390E04AD04C
:102280005A94F8CFAA94F401EA0DF11D8081B701A8
:1022900090E040D0A110F6CF332009F45DCEB70115
:1022A00080E290E037D03A94F7CFF70186819781AA
:1022B00002C08FEF9FEF2C960FB6F894DEBF0FBED3
:1022C000CDBFDF91CF911F910F91FF90EF90DF90E5
:1022D000CF90BF90AF909F908F907F906F905F90C6
:1022E0004F903F902F900895FC01059061507040F1
:1022F0000110D8F7809590958E0F9F1F0895FC01CF
:102300006150704001900110D8F7809590958E0F24
:102310009F1F08950F931F93CF93DF93FB0123819A
:1023200021FD03C08FEF9FEF28C022FF16C046811A
:102330005781248135814217530744F4A081B1812C
:102340009D012F5F3F4F318320838C9326813781FE
:102350002F5F3F4F3783268310C0EB01092F182FC3
:102360000084F185E02D1995892BE1F68E819F81FE
:1023700001969F838E83812F902FDF91CF911F91A4
:102380000F910895FA01AA27283051F1203181F1E7
:10239000E8946F936E7F6E5F7F4F8F4F9F4FAF4F6D
:1023A000B1E03ED0B4E03CD0670F781F891F9A1F80
:1023B000A11D680F791F8A1F911DA11D6A0F711D34
:1023C000811D911DA11D20D009F468943F912AE040
:1023D000269F11243019305D3193DEF6CF01089528
:1023E000462F4770405D4193B3E00FD0C9F7F6CF59
:1023F000462F4F70405D4A3318F0495D31FD405221
:10240000419302D0A9F7EACFB4E0A69597958795B6
:1024100077956795BA95C9F7009761057105089595
:102420009B01AC010A2E0694579547953795279541
:10243000BA95C9F7620F731F841F951FA01D0895D9
:04244000F894FFCF3E
:102444000700080009000A000B000000010000005A
:102454000000420043004400450002000300040061
:102464000500060020004000C0008000A00000001D
:102474000000000016001A0020002200240026009C
:102484002800170019001B001D001F002100230055
:102494002500270029002B002D002F00310000000B
:1024A4000000A70811084008ED0871084F086308E8
:1024B400020003000400050006000D0007000800E8
:1024C40009000A000B0042004300440045000C00D0
:1024D400170019001B001D001F00210023003500F8
:1024E4002500270029002B002D002F003100330088
:1024F400160018001A001C001E00200022002400F0
:10250400260028002A002E00525354004746570044
:10251400312E302E320053413141005374617274B4
:10252400206F66204173736573736D656E7420311B
:10253400410050555A5A4C452050494E2000203AEB
:1025440020004131412053544F50204445544543C9
:102554005445442100535431413A202564005341E9
:1025640031413A2025640053413142005374617271
:1025740074206F66204173736573736D656E742088
:10258400314200415353454D424C592050494E204D
:1025940000205052455353454420004131422053BA
:1025A400544F50204445544543544544210053540A
:1025B40031423A20256400534131423A20256400D7
:1025C400534132005374617274206F6620417373F7
:1025D4006573736D656E7420320041737365737334
:1025E4006D656E74203220627574746F6E20707223
:1025F40065737365640041322053544F5020444541
:102604005445435445442100456E64206F6620417F
:1026140073736573736D656E742032004132205399
:10262400544F50005354323A202564005341323AF7
:1026340020256400534133005354333A2025640069
:102644005341333A20256400475231410047523107
:10265400413A202564004752314200475231423A00
:1026640020256400475232004752323A2025640044
:10267400475233004752333A202564005374617241
:1026840074206F66204173736573736D656E742077
:1026940033003A50574D3A00677265656E004173D6
:1026A400736573736D656E74203320627574746F13
:1026B4006E20707265737365640041332053544F08
:1026C4005020444554454354454421003A20315058
:1026D400574D2056414C55453A20005220474F4F04
:1026E40044004220474F4F44005920474F4F440075
:1026F4005720474F4F44004B20474F4F4400456EEF
:1027040064206F66204173736573736D656E742006
:1027140033000D0A005374617274696E672052535A
:102724004D464720736B696C6C73206173736573DA
:10273400736D656E74207465737420766572736945
:102744006F6E2000436F6E6669677572696E6720ED
:1027540070696E732E2E2E0050696E7320636F6E37
:08276400666967757265640087
:00000001FF
